:020000040800F2
:10000000300700208901000865040008A1030008EA
:1000100025040008390200086B0F000800000000EA
:1000200000000000000000000000000011070008B0
:100030003D02000800000000CD060008A9080008E5
:10004000A3010008A3010008A3010008A301000800
:10005000A3010008A3010008A3010008A3010008F0
:10006000A3010008A3010008A3010008A3010008E0
:10007000A3010008A3010008A3010008A3010008D0
:10008000A3010008A3010008A3010008A3010008C0
:10009000A3010008A3010008A3010008A3010008B0
:1000A000A3010008A3010008A3010008A3010008A0
:1000B000A3010008A3010008A3010008A301000890
:1000C000A3010008A3010008A3010008A301000880
:1000D000A3010008850E0008A3010008A301000881
:1000E000A3010008A3010008A301000800F002F822
:1000F00000F03AF80AA090E8000C82448344AAF188
:100100000107DA4501D100F02FF8AFF2090EBAE885
:100110000F0013F0010F18BFFB1A43F0010318473B
:10012000D8160000F8160000103A24BF78C878C12D
:10013000FAD8520724BF30C830C144BF04680C60ED
:10014000704700000023002400250026103A28BF35
:1001500078C1FBD8520728BF30C148BF0B60704739
:100160001FB51FBD10B510BD00F033F81146FFF7E5
:10017000F7FF00F0FFFE00F051F803B4FFF7F2FFC5
:1001800003BC00F0F4FE000009488047094800471E
:10019000FEE7FEE7FEE7FEE7FEE7FEE7FEE7FEE737
:1001A000FEE7FEE704480549054A064B7047000094
:1001B000AD080008ED0000083001002030070020E5
:1001C00030030020300300207047704770477047AD
:1001D0007047754600F02CF8AE4605006946534658
:1001E00020F00700854618B020B5FFF7DBFFBDE81B
:1001F00020404FF000064FF000074FF000084FF08E
:10020000000B21F00701AC46ACE8C009ACE8C0091E
:10021000ACE8C009ACE8C0098D46704710B504468B
:10022000AFF300802046BDE81040FFF7A6BF0000F6
:1002300000487047D000002000BFFEE770472DE95E
:10024000F04102460025002600200023002400275C
:1002500091F803C00CF00F0591F803C00CF0100CDE
:10026000BCF1000F03D091F802C04CEA050591F8EB
:1002700000C0BCF1000F31D0146800202BE04FF01B
:10028000010C0CFA00F3B1F800C00CEA03069E4220
:1002900020D183004FF00F0C0CFA03F7BC4305FA92
:1002A00003FC4CEA040491F803C0BCF1280F06D10A
:1002B0004FF0010C0CFA00FCC2F814C00AE091F8EF
:1002C00003C0BCF1480F05D14FF0010C0CFA00FC43
:1002D000C2F810C0401C0828D1D31460B1F800C087
:1002E000BCF1FF0F34DD546800202EE000F1080C53
:1002F0004FF0010808FA0CF3B1F800C00CEA03064D
:100300009E4221D183004FF00F0C0CFA03F7BC433F
:1003100005FA03FC4CEA040491F803C0BCF1280F71
:1003200005D100F1080C08FA0CF8C2F8148091F815
:1003300003C0BCF1480F07D100F1080C4FF00108D1
:1003400008FA0CF8C2F81080401C0828CED354607C
:10035000BDE8F0810246002093680B400BB10120FC
:1003600000E000207047416170470AB1016100E080
:100370004161704770B500250CE06006040E4FF433
:10038000805040FA05F10548FFF7E4FF2044C4B26D
:10039000681CC5B2052DF0DB204670BD0008014089
:1003A00000BFFEE770B50546002415E0802020411F
:1003B00000EA05024FF400710E48FFF7D6FF012254
:1003C00011020C48FFF7D1FF00224FF48071094859
:1003D000FFF7CBFF601CC4B2082CE7DB012211023F
:1003E0000448FFF7C2FF00224FF480710148FFF775
:1003F000BCFF70BD000C014008B50121042000F0D5
:1004000077F904208DF803004FF4F850ADF80000A0
:1004100003208DF8020069460148FFF710FF08BD70
:100420000008014000BFFEE708B50121042000F0EC
:100430005FF910208DF80300ADF8000003208DF85F
:10044000020069460648FFF7FAFE10210448FFF74C
:100450008AFF40F2CF7140F2CF2000F097FA08BD3A
:1004600000080140704770B500240EE000212046CE
:1004700000F06FF8002504E0002000F017F9681C78
:10048000C5B2802DF8DB601CC4B2082CEEDB70BD59
:1004900070B5002406E0002500E06D1CB5F57A7FFC
:1004A000FBD3641CB4F57A7FF5D300F0A7F9AE2036
:1004B00000F0ECF8D52000F0E9F8802000F0E6F834
:1004C000A82000F0E3F83F2000F0E0F8D32000F08F
:1004D000DDF8002000F0DAF8402000F0D7F8A12085
:1004E00000F0D4F8C82000F0D1F8DA2000F0CEF8FF
:1004F000122000F0CBF8812000F0C8F8CF2000F0E7
:10050000C5F8D92000F0C2F8F12000F0BFF8DB20D8
:1005100000F0BCF8302000F0B9F8A42000F0B6F8E4
:10052000A62000F0B3F88D2000F0B0F8142000F001
:10053000ADF8AF2000F0AAF8FFF795FF70BD10B539
:100540000246012000E050430B1EA1F10101FAD147
:1005500010BD70B505460C4645F0B00000F096F8A9
:10056000102141EA141000F091F804F00F0000F09F
:100570008DF870BD2DE9F04781460E4617461D46A1
:10058000DDF82080002414E0281B411E0220FFF724
:10059000D6FFB7FBF0F000F0010000F1300A08FBD5
:1005A0000460C1B243465246484600F007F8601C5A
:1005B000C4B2AC42E8DBBDE8F08700002DE9F041B1
:1005C00005460E4617469846B8F1080F29D1721E07
:1005D000D1B26A1ED0B2FFF7BCFF002409E0A7F138
:1005E00020011C4A02EB0111085D00F05FF8601C5D
:1005F000C4B2082CF3DB721ED1B2E8B2FFF7A9FF38
:1006000000240BE0A7F12001124A02EB011204F1D1
:100610000801505C00F04AF8601CC4B2082CF1DB01
:1006200015E0721ED1B26A1ED0B2FFF792FF00240D
:100630000BE0A7F1200101EB4101074A02EB410168
:10064000085D00F033F8601CC4B2062CF1DBBDE895
:10065000F0810000E8110008C00F00082DE9F0410A
:1006600080460E4615461F4600240AE0285D42B229
:1006700007FB0460C1B23B464046FFF79FFF601C8A
:10068000C4B2285D0028F1D1BDE8F08110B5044660
:1006900000F0DCF87820FFF785FE0020FFF782FEEF
:1006A0002046FFF77FFE00F0EBF810BD10B50446C2
:1006B00000F0CCF87820FFF775FE4020FFF772FEBF
:1006C0002046FFF76FFE00F0DBF810BD704700001A
:1006D00029B1064AD2690243044BDA6104E0034AB5
:1006E000D2698243014BDA6170470000001002407A
:1006F00029B1064A92690243044B9A6104E0034A15
:1007000092698243014B9A617047000000100240D9
:10071000704710B500F002F810BD00000CB50020C5
:10072000019000903348006840F4803031490860FF
:1007300000BF3048006800F4003000900198401C71
:100740000190009818B90198B0F5A06FF1D129482F
:10075000006800F4003010B10120009001E000209A
:1007600000900098012843D12348006840F0100011
:10077000214908600846006820F003000860084628
:10078000006840F0020008601A4840681949486053
:100790000846406848600846406840F48060486009
:1007A0000846406820F47C1048600846406840F4E1
:1007B000E81048600846006840F08070086000BF9C
:1007C0000C48006800F000700028F9D00948406823
:1007D00020F00300074948600846406840F00200E6
:1007E000486000BF0348406800F00C000828F9D1B9
:1007F0000CBD0000001002400020024008B501219D
:100800000820FFF775FF14208DF8030003208DF8F2
:1008100002004FF48070ADF8000069460A48FFF707
:100820000EFD4FF40070ADF8000069460648FFF772
:1008300006FD012211020448FFF797FD0122510233
:100840000148FFF792FD08BD000C014010B50122E0
:1008500051020A48FFF789FD012211020748FFF7FC
:1008600084FD00224FF400710448FFF77EFD002252
:100870004FF480710148FFF778FD10BD000C014076
:1008800010B500224FF400710648FFF76EFD0122FB
:1008900011020448FFF769FD012251020148FFF7E8
:1008A00064FD10BD000C01407047000010B51348F6
:1008B000006840F00100114908600846406810498E
:1008C00008400E494860084600680E4908400B4938
:1008D00008600846006820F48020086008464068E8
:1008E00020F4FE0048604FF41F008860FFF711FFFE
:1008F0004FF000600449086010BD00000010024085
:100900000000FFF8FFFFF6FE08ED00E070B50446BA
:100910000D46012C0BD11C480088401C6843642103
:1009200090FBF1F086B23146A00700F050FA022C9D
:100930000BD115480088401C6843642190FBF1F0FE
:1009400086B23146600700F044FA032C0CD10E4801
:100950000088401C6843642190FBF1F086B2314668
:100960004FF0804000F037FA042C0BD10648008885
:10097000401C6843642190FBF1F086B231462007A9
:1009800000F02BFA70BD00000600002030B589B0E1
:1009900005460C465248048001210846FFF798FEA0
:1009A00001210420FFF7A4FE0120ADF8200018204B
:1009B0008DF8230003208DF8220008A94948FFF78D
:1009C0003EFC0220ADF8200018208DF82300032003
:1009D0008DF8220008A94348FFF731FC0420ADF848
:1009E000200018208DF8230003208DF8220008A98C
:1009F0003C48FFF724FC0820ADF8200018208DF8B3
:100A0000230003208DF8220008A93648FFF717FCC1
:100A1000ADF81840ADF814500020ADF81A00ADF84C
:100A2000160005A94FF0804000F0DAF96020ADF81B
:100A300004000120ADF806000020ADF80A00ADF872
:100A40000C0001A94FF0804000F066F86020ADF87E
:100A500004000120ADF806000020ADF80A00ADF852
:100A60000C0001A94FF0804000F0ACF86020ADF818
:100A700004000120ADF806000020ADF80A00ADF832
:100A80000C0001A94FF0804000F0FCF86020ADF8A8
:100A900004000120ADF806000020ADF80A00ADF812
:100AA0000C0001A94FF0804000F046F90821C8066B
:100AB00000F07EF80821C80600F0D6F80821C80624
:100AC00000F030F90821C80600F074F90121880708
:100AD00000F00AF80121880700F012F809B030BDD3
:100AE000060000200008014021B1028842F0800287
:100AF000028004E002884FF67F731A40028070473C
:100B000021B1028842F00102028004E002884FF61F
:100B1000FE731A400280704770B500240022002343
:100B2000058C4FF6FE7635400584028C8388048B55
:100B30004FF68F752C40B51E2C400D882C43751E2A
:100B40002A400D892A434D882A43144DA8420BD0D0
:100B5000134DA84208D0134DA84205D0124DA8420B
:100B600002D0124DA84213D14FF6F7752A404D8995
:100B70002A434FF6FB752A408D882A434FF6FF65BE
:100B80002B404FF6FF552B408D892B43CD892B43AE
:100B900083800483CD888586028470BD002C01404B
:100BA0000034014000400140004401400048014041
:100BB0000A460021018B4FF6F77319401143018358
:100BC0007047000070B5002400220023058C4FF60A
:100BD000EF7635400584028C8388048B48F6FF75D8
:100BE0002C404FF6FF452C400D884FF6FF7606EA65
:100BF00005252C434FF6DF752A400D8906EA0515B9
:100C00002A434D8806EA05152A43154DA84202D00D
:100C1000144DA8421DD14FF67F752A404D894FF6DD
:100C2000FF7606EA05152A434FF6BF752A408D88E0
:100C300006EA05152A434FF6FF352B404FF2FF75A4
:100C40002B408D8906EA85052B43CD8906EA85056B
:100C50002B4383800483CD880587028470BD000008
:100C6000002C0140003401400A460021018B4FF264
:100C7000FF7319404FF6FF7303EA02231943018300
:100C80007047000070B5002400220023058C4FF649
:100C9000FF6635400584028C8388848B4FF68F7500
:100CA0002C404FF6FC752C400D882C434FF6FF5519
:100CB0002A400D894FF6FF7606EA05252A434D881E
:100CC00006EA05252A43154DA84202D0144DA84234
:100CD0001DD14FF2FF752A404D894FF6FF7606EA87
:100CE00005252A434FF6FF352A408D8806EA05255B
:100CF0002A434EF6FF752B404DF6FF752B408D892C
:100D000006EA05152B43CD8906EA05152B4383809A
:100D10008483CD888587028470BD0000002C01404B
:100D2000003401400A460021818B4FF6F7731940C9
:100D3000114381837047000070B500220023002416
:100D4000058C4EF6FF7635400584038C8488828BB3
:100D500048F6FF752A404FF6FF452A400D884FF6AA
:100D6000FF7606EA05252A434DF6FF752B400D89CF
:100D700006EA05352B434D8806EA05352B430B4D16
:100D8000A84202D00A4DA84208D14BF6FF752C406C
:100D90008D894FF6FF7606EA85152C438480828381
:100DA000CD88A0F84050038470BD0000002C0140A5
:100DB000003401400A460021818B4FF2FF73194035
:100DC0004FF6FF7303EA022319438183704781863C
:100DD00070470187704781877047A0F840107047BF
:100DE000002202881D4B98420ED01D4B98420BD01A
:100DF000B0F1804F08D01B4B984205D01A4B984257
:100E000002D01A4B984204D14FF68F731A404B8888
:100E10001A43174B984207D0164B984204D04FF60E
:100E2000FF431A40CB881A4302808B8883850B8846
:100E300003850A4B98420BD0094B984208D00E4BC1
:100E4000984205D00D4B984202D00D4B984201D1EB
:100E50000B7A03860123838270470000002C014037
:100E6000003401400004004000080040000C004035
:100E700000100040001400400040014000440140C8
:100E80000048014010B540F225511D4800F03EF8E1
:100E900010B31B4800F064F8C4B21A48008800F48C
:100EA0000040C8B91748008800F4804060B10A2C9F
:100EB00003D000201349088020E01248008840F445
:100EC00000401049088019E00D2C06D10D4800881B
:100ED00040F480400B49088010E00A480088C0F3C5
:100EE0000D0009490C5407480088401C054908803A
:100EF00008460088C72801DD0020088010BD0000DA
:100F000000380140040000200800002070B50246AF
:100F1000002400230025002040F66A16B14200D1CB
:100F200000BFC1F3421501F01F03012606FA03F3C7
:100F3000012D02D19689334006E0022D02D1168A96
:100F4000334001E0968A33400C12012606FA04F47D
:100F50001688344013B10CB1012000E0002070BDB0
:100F600001468888C0F30800704700BFFEE700BF55
:100F70007047000008B5FFF78BFAFFF755FAFFF747
:100F80003BFA08230CA201210846FFF767FB322138
:100F90000420FFF7BBFC32210120FFF7B7FC0AE079
:100FA000FFF7E8F9044608200523224601210090B6
:100FB0000320FFF7DFFAF3E754657374360000008F
:100FC0000000000000000000002F000000000700EB
:100FD000070000147F147F1400242A7F2A12006265
:100FE0006408132300364955225000000503000011
:100FF00000001C224100000041221C000014083E99
:1010000008140008083E0808000000A0600000085E
:1010100008080808000060600000002010080402B2
:10102000003E5149453E0000427F40000042615170
:101030004946002141454B31001814127F1000270A
:1010400045454539003C4A494930000171090503CD
:1010500000364949493600064949291E00003636FE
:101060000000000056360000000814224100001461
:10107000141414140000412214080002015109063E
:1010800000324959513E007C1211127C007F4949BF
:101090004936003E41414122007F4141221C007FF0
:1010A00049494941007F09090901003E4149497AFE
:1010B000007F0808087F0000417F41000020404178
:1010C0003F01007F08142241007F40404040007FE4
:1010D000020C027F007F0408107F003E4141413E28
:1010E000007F09090906003E4151215E007F091970
:1010F00029460046494949310001017F0101003F6D
:101100004040403F001F2040201F003F4038403FEC
:101110000063140814630007087008070061514950
:10112000454300007F41410000552A552A550000E3
:1011300041417F0000040201020400404040404061
:10114000000001020400002054545478007F4844F9
:10115000443800384444442000384444487F003830
:101160005454541800087E0901020018A4A4A47C59
:10117000007F080404780000447D40000040808423
:101180007D00007F102844000000417F4000007C6B
:1011900004180478007C0804047800384444443877
:1011A00000FC242424180018242418FC007C0804C3
:1011B000040800485454542000043F444020003C9C
:1011C0004040207C001C2040201C003C4030403C23
:1011D000004428102844001CA0A0A07C00446454B3
:1011E0004C441414141414140000000000000000F7
:1011F0000000000000000000000000F800000000F7
:10120000000000333000000000100C06100C060037
:10121000000000000000000040C07840C07840009E
:10122000043F04043F040400007088FC0830000000
:10123000001820FF211E0000F008F000E018000058
:1012400000211C031E211E0000F008887000000011
:101250001E2123241927211010160E000000000063
:101260000000000000000000000000E01804020080
:10127000000000071820400000020418E0000000F1
:101280000040201807000000404080F080404000EF
:101290000202010F01020200000000F00000000045
:1012A0000101011F01010100000000000000000019
:1012B00080B070000000000000000000000000008E
:1012C0000001010101010101000000000000000017
:1012D00000303000000000000000000080601804B2
:1012E000006018060100000000E010088870E000AF
:1012F000000F182621100F0000001010F800000049
:10130000000020203F202000007008080808F0009E
:10131000003028242221300000300808088870009E
:101320000018202121221C000000804030F800001D
:1013300000060524243F242400F888888808080033
:101340000019202020110E0000E010888890000075
:10135000000F112020201F000018080888681800BE
:101360000000003E0100000000708808088870003E
:10137000001C222121221C0000F008080810E000B7
:101380000001122222110F00000000C0C000000066
:10139000000000303000000000000080000000006D
:1013A0000000806000000000000080402010080065
:1013B000000102040810200040404040404040002E
:1013C0000404040404040400000810204080000009
:1013D0000020100804020100007048080808F0000E
:1013E0000000003036010000C030C828E810E000DE
:1013F0000718272423140B000000C038E000000069
:10140000203C23020227382008F8888888700000D2
:10141000203F202020110E00C030080808083800A6
:10142000071820202010080008F808080810E0001D
:10143000203F202020100F0008F88888E8081000BE
:10144000203F20202320180008F88888E808100092
:10145000203F200003000000C030080808380000CA
:1014600007182020221E020008F808000008F808CB
:10147000203F210101213F20000808F80808000052
:101480000020203F2020000000000808F808080085
:10149000C08080807F00000008F888C028180800FD
:1014A000203F20012638200008F808000000000036
:1014B000203F20202020300008F8F800F8F808002D
:1014C000203F003F003F200008F830C00008F80827
:1014D000203F200007183F00E01008080810E00037
:1014E0000F10202020100F0008F808080808F0004E
:1014F000203F210101010000E01008080810E00071
:101500000F18242438504F0008F888888888700005
:10151000203F2000030C30200070880808083800A5
:101520000038202121221C00180808F8080818009B
:101530000000203F2000000008F808000008F8081C
:10154000001F202020201F000878880000C83808CD
:10155000000007380E010000F80800F80008F80045
:10156000033C0700073C03000818688080681808DF
:1015700020302C03032C30200838C800C83808005D
:101580000000203F2000000010080808C8380800AC
:101590002038262120201800000000FE0202020050
:1015A0000000007F40404000000C30C00000000000
:1015B000000000010638C00000020202FE00000028
:1015C000004040407F0000000000040202020400CE
:1015D000000000000000000000000000000000000B
:1015E00080808080808080800002020400000000F3
:1015F00000000000000000000000808080800000EB
:101600000019242222223F2008F8008080000000D8
:10161000003F112020110E0000000080808000009B
:10162000000E112020201100000000808088F800AA
:10163000000E112020103F200000808080800000DC
:10164000001F222222221300008080F08888881840
:101650000020203F2020000000008080808080004B
:10166000006B94949493600008F8008080800000E0
:10167000203F210000203F200080989800000000BB
:101680000020203F202000000000008098980000EB
:1016900000C08080807F000008F80000808080000B
:1016A000203F24022D302000000808F80000000030
:1016B0000020203F202000008080808080808000EB
:1016C000203F20003F20003F80800080808000007D
:1016D000203F210000203F2000008080808000000B
:1016E000001F202020201F0080800080800000003C
:1016F00080FFA12020110E0000000080808080006B
:10170000000E112020A0FF8080808000808080005B
:1017100020203F2120000100000080808080800088
:101720000033242424241900008080E080800000FD
:101730000000001F2020000080800000008080004A
:10174000001F202020103F208080800000808080AB
:1017500000010E300806010080800080008080803B
:101760000F300C030C300F00008080008080800060
:101770000020312E0E31200080808000008080808B
:1017800080818E701806010000808080808080003B
:101790000021302C2221300000000000807C020259
:1017A00000000000003F404000000000FF0000007B
:1017B00000000000FF0000000002027C800000002A
:1017C0000040403F00000000000601010202040446
:1017D00000000000000000001060028C0000FE927B
:1017E00092929292FE00000004047E01407E4242EA
:1017F0007E427E42427E4000181800080000002011
:101800000800000028010008201800080800002037
:10181000280700004401000800000000000000004C
:04000005080000ED02
:00000001FF
