:020000040800F2
:100000004007002089010008DD040008F90300080A
:100010009904000843020008B11000080000000025
:10002000000000000000000000000000650800085B
:10003000E1020008000000007F070008D509000861
:10004000A3010008A3010008A3010008A301000800
:10005000A3010008A3010008A3010008A3010008F0
:10006000A3010008A3010008A3010008A3010008E0
:10007000A3010008A3010008A3010008A3010008D0
:10008000A3010008A3010008A3010008A3010008C0
:10009000A3010008A3010008A3010008A3010008B0
:1000A000A3010008A3010008A3010008A3010008A0
:1000B000A3010008A3010008A3010008A301000890
:1000C000A3010008A3010008A3010008A301000880
:1000D000A3010008F50E0008A3010008A301000811
:1000E000A3010008A3010008A301000800F002F822
:1000F00000F03AF80AA090E8000C82448344AAF188
:100100000107DA4501D100F02FF8AFF2090EBAE885
:100110000F0013F0010F18BFFB1A43F0010318473B
:10012000E418000004190000103A24BF78C878C110
:10013000FAD8520724BF30C830C144BF04680C60ED
:10014000704700000023002400250026103A28BF35
:1001500078C1FBD8520728BF30C148BF0B60704739
:100160001FB51FBD10B510BD00F031F81146FFF7E7
:10017000F7FF00F09FFF00F04FF803B4FFF7F2FF26
:1001800003BC00F057F800000948804709480047C1
:10019000FEE7FEE7FEE7FEE7FEE7FEE7FEE7FEE737
:1001A000FEE7FEE704480549054A064B7047000094
:1001B000D9090008ED000008400100204007002098
:1001C0004003002040030020704770477047754689
:1001D00000F02CF8AE4605006946534620F00700B3
:1001E000854618B020B5FFF7DDFFBDE820404FF091
:1001F00000064FF000074FF000084FF0000B21F011
:100200000701AC46ACE8C009ACE8C009ACE8C009DD
:10021000ACE8C0098D46704710B50446AFF30080C6
:100220002046BDE81040FFF7A8BF00000048704717
:10023000E000002001491820ABBEFEE726000200C6
:100240007047FEE72DE9F04104460F461646234D60
:10025000012C13D11021284600F0C6F800210320FC
:1002600000F0E2FB0021042000F0DEFB3946012013
:1002700000F0DAFB3146022000F0D6FB022C13D14D
:100280001021284600F0B0F80021012000F0CCFB3E
:100290000021022000F0C8FB3946032000F0C4FB17
:1002A0003146042000F0C0FB002C15D11021284657
:1002B00000F098F80021012000F0B6FB0021022098
:1002C00000F0B2FB0021032000F0AEFBBDE8F041DE
:1002D0000021042000F0A8BBBDE8F0810008014027
:1002E00070472DE9F0410022CC7804F00F03E406BA
:1002F00001D58C7823430C784FF00F0714F0FF0FD3
:100300004FF0010C1CD005680CFA02F40E88264050
:10031000A64211D1960007FA06F825EA080503FA65
:1003200006F848EA0505CE78282E02D0482E02D0DD
:1003300002E0446100E00461521C082AE4D3056035
:100340000A88FF2A1ED94568002202F108060CFA25
:1003500006F40E882640A64210D1960007FA06F849
:1003600025EA080503FA06F848EA0505CE78282E9E
:1003700000D14461CE78482E00D10461521C082A75
:10038000E3D34560BDE8F081F0B5154C002801DAF3
:10039000E36900E06368C0F30346420D120185B2D1
:1003A000C0F301579540032F07D0C2020CD503229A
:1003B000B240934343F0706209E023F070626368D7
:1003C00023F07063636002E0AB4343F0706201B1FD
:1003D0002A43002801DAE261F0BD6260F0BD00004E
:1003E000000001404161704701617047002A01D05F
:1003F0000161704741617047FEE700002DE9F04759
:1004000007460024134D4FF080094FF40078AE15D5
:1004100029FA04F23A4041462846FFF7E7FF012255
:1004200031462846FFF7E2FF002231462846FFF713
:10043000DDFF641CE4B2082CEAD3012231462846D1
:10044000FFF7D4FF31462846BDE8F0470022FFF70A
:10045000CDBF0000000C014008B50121084600F0A6
:100460009DF901210A48FFF78FFF0121082000F0C4
:1004700095F904208DF80300F820ADF80000032062
:100480008DF8020069460348FFF72BFF08BD000006
:1004900000023000000C0140FEE7000038B50121E9
:1004A000042000F07BF910208DF80300ADF8000067
:1004B00003208DF80200084C69462046FFF711FF23
:1004C00010212046FFF78EFF40F2CF7140F2CF207F
:1004D00000F0E4FA38BD0000000801407047000059
:1004E00070B50F23C27801260178002A1ED0144A65
:1004F000126802F4E062C2F5E062120AC2F104047A
:10050000D3404578A54082781A402A43120101F170
:10051000E02181F80024007800F01F018E4040099E
:10052000800000F1E020C0F8006170BD01F01F0004
:1005300086404809800000F1E020C0F8806170BD6D
:100540000CED00E070B500250021284600F06BF8A6
:100550000024002000F002F9641CE4B2802CF8D3DF
:100560006D1CEDB2082DEFD370BD10B500214FF416
:100570007A720020401C9042FCD3491C9142F8D36F
:1005800000F0CCF9AE2000F0D8F8D52000F0D5F876
:10059000802000F0D2F8A82000F0CFF83F2000F033
:1005A000CCF8D32000F0C9F8002000F0C6F84020B5
:1005B00000F0C3F8A12000F0C0F8C82000F0BDF89A
:1005C000DA2000F0BAF8122000F0B7F8812000F02D
:1005D000B4F8CF2000F0B1F8D92000F0AEF8F12047
:1005E00000F0ABF8DB2000F0A8F8302000F0A5F810
:1005F000A42000F0A2F8A62000F09FF88D2000F0C3
:100600009CF8142000F099F8AF2000F096F8BDE8AF
:100610001040FFF797BF0346012000E05843491EF2
:100620004A1CFBD1704710B50C4640F0B00000F0FA
:1006300084F8102040EA141000F07FF804F00F0056
:10064000BDE8104000F079B82DE9F0410746781E6A
:100650004E1EA2F12005082B12D0F1B2C0B2FFF756
:10066000E2FF0024154905EB450001EB4005285D3C
:1006700000F074F8641CE4B2062CF8D3BDE8F081F5
:10068000F1B2C0B2FFF7CFFF00240D4800EB051513
:10069000285D00F063F8641CE4B2082CF8D3F1B2D2
:1006A0003846FFF7C0FF00242819007A00F056F8FA
:1006B000641CE4B2082CF7D3E0E70000EC1100085A
:1006C000141400082DE9F05F8346DDF828A0884661
:1006D00091461F4600240A2514E0391B491E0A20B2
:1006E000FFF799FFB9FBF0F6B6FBF5F005FB1062DA
:1006F0000AFB0480C1B2303253465846FFF7A4FFCC
:10070000641CE4B2BC42E8D3BDE8F09F2DE9F0419F
:1007100080460E4615461F46002409E007FB04608C
:10072000C1B22A573B464046FFF78EFF641CE4B235
:10073000285D0028F2D1BDE8F08110B5044600F034
:1007400015F97820FFF75AFE0020FFF757FE2046E4
:10075000FFF754FEBDE8104000F024B910B5044680
:1007600000F004F97820FFF749FE4020FFF746FE2D
:100770002046FFF743FEBDE8104000F013B9704774
:10078000054A002903D0D1690143D1617047D1697D
:100790008143D1617047000000100240054A0029E2
:1007A00003D09169014391617047916981439161DF
:1007B000704700000010024010B5264A516801F051
:1007C0000C01254B002927D0042927D0082927D040
:1007D0000360516801F0F0010909204B5C5C01687D
:1007E000E1404160546804F4E064240A1C5D21FA8D
:1007F00004F48460546804F46054E40A1B5DD94036
:10080000C160526802F44042920B144B1B1F9A5C69
:10081000B1FBF2F1016110BD0360DAE70360D8E7D4
:10082000516801F47011536803F48033022404EB1F
:10083000914133B153689B0307D5094B594301607C
:10084000C7E7074B59430160C3E7034B59430160B6
:10085000BFE700000010024000127A0004000020F0
:1008600000093D00704700F001B800000CB50022FF
:10087000019200922748016841F4803101604FF4F1
:10088000A063016801F4003100910199491C0191B4
:10089000009911B901999942F3D10168890302D5F0
:1008A0000121009100E000920099012930D11A49FC
:1008B0000A6842F010020A600A6822F003020A6025
:1008C0000A6842F002020A60416841604168416082
:1008D000416841F480614160416821F47C114160CC
:1008E000416841F4E8114160016841F080710160A4
:1008F00001688901FCD5416821F00301416041682C
:1009000041F0020141604168C1F381010229FAD13D
:100910000CBD00000010024000200240F8B501218B
:100920000820FFF73BFF14208DF8030003208DF80B
:1009300002004FF48074ADF800400B4E694630461B
:10094000FFF7CFFC6500ADF8005069463046FFF771
:10095000C8FC012221463046FFF748FD0122294606
:100960003046FFF743FDF8BD000C014070B5012291
:100970000B4D540221462846FFF738FD012216028E
:1009800031462846FFF732FD002221462846FFF770
:100990002DFD31462846BDE870400022FFF726BDF8
:1009A000000C014070B50A4D4FF40074002221463E
:1009B0002846FFF71BFD012211022846FFF716FD0E
:1009C00021462846BDE870400122FFF70FBD000018
:1009D000000C01407047000010B50F48016841F05D
:1009E0000101016041680D4A1140416001680C4AF3
:1009F00011400160016821F480210160416821F407
:100A0000FE0141604FF41F018160FFF72CFF054993
:100A10004FF00060086010BD001002400000FFF8B9
:100A2000FFFFF6FE08ED00E02DE9F04104460D461B
:100A3000194E64274FF08048012C08D13088401CA3
:100A40006843B0FBF7F081B2404600F0FBF9022C9E
:100A500008D13088401C6843B0FBF7F081B24046B3
:100A600000F0F2F9032C08D13088401C6843B0FB39
:100A7000F7F081B2404600F0E9F9042C0AD1308841
:100A8000401C6843B0FBF7F081B24046BDE8F0413E
:100A900000F0DEB9BDE8F081160000202DE9F0433A
:100AA00089B081460F464A48078001210846FFF772
:100AB00067FE01210420FFF771FE0125ADF82050EB
:100AC00018248DF8234003268DF82260DFF8048176
:100AD00008A94046FFF705FC0220ADF820008DF87C
:100AE00023408DF8226008A94046FFF7FAFB042056
:100AF000ADF820008DF823408DF8226008A940460B
:100B0000FFF7EFFB0820ADF820008DF823408DF8AB
:100B1000226008A94046FFF7E4FBADF81870ADF875
:100B200014900024ADF81A40ADF81640AF0705A99F
:100B3000384600F091F96026ADF80460ADF8065033
:100B4000ADF80A40ADF80C4001A9384600F05CF859
:100B5000ADF80460ADF80650ADF80A40ADF80C40B1
:100B600001A9384600F09AF8ADF80460ADF80650D7
:100B7000ADF80A40ADF80C4001A9384600F0DCF8A9
:100B8000ADF80460ADF80650ADF80A40ADF80C4081
:100B900001A9384600F018F90821384600F078F825
:100BA0000821384600F0BEF80821384600F006F962
:100BB0000821384600F03CF90121384600F00CF8D5
:100BC0000121384600F014F809B0BDE8F0830000B8
:100BD0001600002000080140002904D0018841F0DF
:100BE000800101807047018821F0800101807047F9
:100BF000002904D0018841F001010180704701887B
:100C000021F001010180704730B5028C22F0010211
:100C10000284028C8388048B24F0700424F0030582
:100C20000C882C4322F002020D8915434A882A437E
:100C3000124DA8420BD0124DA84208D0114DA84227
:100C400005D0114DA84202D0104DA8420FD122F07C
:100C500008054A892A4322F004058A882A4323F496
:100C6000807323F400738D891D43CB892B438380CC
:100C70000483C9888186028430BD0000002C0140B5
:100C80000034014000400140004401400048014060
:100C9000028B22F008020A430283704770B5028C6F
:100CA00022F010020284028C8388048B24F4E04436
:100CB00024F440760D884FF6FF7404EA0525354389
:100CC00022F020020E8904EA061616434A8804EA36
:100CD00002123243114EB04202D0114EB04217D12F
:100CE00022F080024E8904EA0616164326F04006DA
:100CF0008A8804EA0212324323F4806323F40063F7
:100D00008E8904EA86061E43CB8904EA83033343B3
:100D100083800583C9880187028470BD002C01404F
:100D200000340140028B22F400624FF6FF7303EAA5
:100D3000012111430183704770B5028C22F4807247
:100D40000284028C8388848B24F0700424F00304D2
:100D50000D88254322F400720E894FF6FF7404EAD1
:100D6000062616434A8804EA02223243114EB04254
:100D700002D0114EB04217D122F400664A8904EA2B
:100D80000222324322F480668A8804EA0222324335
:100D900023F4805323F400538E8904EA06161E437D
:100DA000CB8904EA0313334383808583C988818711
:100DB000028470BD002C014000340140828B22F07F
:100DC00008020A438283704770B5028C22F4805275
:100DD0000284058C8288838B23F4E04323F44076DD
:100DE0000C884FF6FF7303EA0424344325F40055BE
:100DF0000E8903EA06362E434D8803EA053535434E
:100E0000094EB04202D0094EB04205D122F48046CC
:100E10008A8903EA8212324382808483C988A0F8D7
:100E20004010058470BD0000002C014000340140DA
:100E3000828B22F400624FF6FF7303EA0121114313
:100E4000818370478186704701877047818770472B
:100E5000A0F840107047000030B502881B4C1C4DB4
:100E6000A0420DD0A8420BD0B0F1804F08D0194B52
:100E7000984205D0184B984202D0184B984203D1A3
:100E800022F070034A881A43154B984206D0154B3E
:100E9000984203D022F44073CA881A4302808A8899
:100EA00082850A880285A0420AD0A84208D00E4A4C
:100EB000904205D00D4A904202D00D4A904201D195
:100EC000097A01860121818230BD0000002C014099
:100ED000003401400004004000080040000C0040C5
:100EE0000010004000140040004001400044014058
:100EF0000048014070B5164C40F22551204600F0E4
:100F000039F800280ED0204600F0CEF8C1B2114AC0
:100F10001088030406D444044FF0000307D50A29BF
:100F200001D0138070BD40F40040108070BD0D29C9
:100F30000AD0094DC0F30D042955401C80B2108021
:100F4000C728F3D9138070BD40F48040108070BD75
:100F5000003801401400002018000020002904D0AF
:100F6000818941F4005181817047818921F40051C8
:100F70008181704770B5002440F66A12C1F34213B4
:100F800001F01F05012606FA05F2012B0CD0022BF9
:100F90000DD0838A1340090A8E40008830400BB17F
:100FA00000B10124204670BD83891340F3E7038A12
:100FB0001340F0E710B540F66A13C1F3421301F095
:100FC0001F040121A140012B07D0022B07D01430B0
:100FD0003AB102680A43026010BD0C30F8E71030E5
:100FE000F6E702688A43026010BD000030B585B0A4
:100FF00004460D46208A4CF6FF710840E9880143FB
:101000002182A0894EF6F3110840A9882A8911434C
:101010006A8902431143A181A08A4FF6FF4108402B
:10102000A9890143A1826846FFF7C6FB1D48844297
:1010300001D1039800E00298A189090408D500EBCA
:10104000C00101EB001029684900B0FBF1F007E096
:1010500000EBC00101EB001029688900B0FBF1F042
:101060006422B0FBF2F109010B096FF018056B4324
:1010700000EB8300A3891D044FF0320307D503EB77
:10108000C000B0FBF2F000F00700084306E003EBFD
:101090000010B0FBF2F000F00F000843208105B013
:1010A00030BD0000003801408088C0F30800704760
:1010B000FEE7000008B5FFF758FAFFF7EFF9FFF772
:1010C000CBF94FF4E13000F041F80121082319A2D7
:1010D0000846FFF71BFB002400271A4DDFF8688045
:1010E00008262888000409D598F8004002232246E3
:1010F000012103200096FFF7E5FA2F80322C09D05A
:10110000A4F1330027280BD219220F210120FFF769
:1011100099F8E6E7192211460120FFF793F8E0E776
:10112000A4F115001D28DCD20F2219210120FFF7A0
:1011300089F8D6E75541525420547261636B2054AC
:1011400065737400140000201800002070B586B08C
:101150000546012144F20400FFF720FB4FF4007024
:10116000ADF8140003248DF8164018218DF81710DF
:101170001C4E05A93046FFF7B4F83115ADF8141030
:1011800004218DF8171005A93046FFF7AAF825208D
:101190008DF800008DF801408DF8024001208DF897
:1011A00003006846FFF79CF901950020ADF80800A0
:1011B000ADF80A00ADF80C00ADF810000C20ADF849
:1011C0000E00094C01A92046FFF710FF012240F252
:1011D00025512046FFF7EEFE01212046FFF7BEFE17
:1011E00006B070BD0008014000380140000000005A
:1011F00000000000002F000000000700070000149E
:101200007F147F1400242A7F2A12006264081323AB
:1012100000364955225000000503000000001C2242
:101220004100000041221C000014083E0814000880
:10123000083E0808000000A0600000080808080830
:10124000000060600000002010080402003E5149C8
:10125000453E0000427F4000004261514946002166
:1012600041454B31001814127F1000274545453980
:10127000003C4A49493000017109050300364949DB
:10128000493600064949291E000036360000000094
:1012900056360000000814224100001414141414DF
:1012A0000000412214080002015109060032495988
:1012B000513E007C1211127C007F49494936003EA4
:1012C00041414122007F4141221C007F494949415F
:1012D000007F09090901003E4149497A007F080859
:1012E000087F0000417F4100002040413F01007F16
:1012F00008142241007F40404040007F020C027FE2
:10130000007F0408107F003E4141413E007F0909F3
:101310000906003E4151215E007F09192946004619
:10132000494949310001017F0101003F4040403FF0
:10133000001F2040201F003F4038403F006314083A
:101340001463000708700807006151494543000015
:101350007F41410000552A552A55000041417F0038
:10136000000402010204004040404040000001022D
:101370000400002054545478007F48444438003816
:101380004444442000384444487F0038545454189E
:1013900000087E0901020018A4A4A47C007F0804B0
:1013A00004780000447D4000004080847D00007F80
:1013B000102844000000417F4000007C041804789D
:1013C000007C0804047800384444443800FC242499
:1013D00024180018242418FC007C08040408004881
:1013E0005454542000043F444020003C4040207CA2
:1013F000001C2040201C003C4030403C0044281091
:101400002844001CA0A0A07C004464544C44141444
:10141000141414140000000000000000000000007C
:1014200000000000000000F8000000000000003391
:101430003000000000100C06100C06000000000038
:101440000000000040C07840C0784000043F040421
:101450003F040400007088FC08300000001820FFE2
:10146000211E0000F008F000E018000000211C031D
:101470001E211E0000F00888700000001E21232499
:101480001927211010160E000000000000000000B7
:1014900000000000000000E0180402000000000747
:1014A0001820400000020418E0000000004020184E
:1014B00007000000404080F0804040000202010F21
:1014C00001020200000000F0000000000101011F05
:1014D00001010100000000000000000080B0700069
:1014E00000000000000000000000000000010101F9
:1014F0000101010100000000000000000030300088
:101500000000000000000000806018040060180661
:101510000100000000E010088870E000000F1826AD
:1015200021100F0000001010F80000000000202023
:101530003F202000007008080808F0000030282430
:10154000222130000030080808887000001820218F
:1015500021221C000000804030F800000006052415
:10156000243F242400F888888808080000192020D7
:1015700020110E0000E0108888900000000F11205C
:1015800020201F0000180808886818000000003E8E
:10159000010000000070880808887000001C2221EB
:1015A00021221C0000F008080810E00000011222AF
:1015B00022110F00000000C0C00000000000003039
:1015C000300000000000008000000000000080608B
:1015D000000000000000804020100800000102040C
:1015E00008102000404040404040400004040404F3
:1015F00004040400000810204080000000201008AF
:1016000004020100007048080808F00000000030E3
:1016100036010000C030C828E810E0000718272471
:1016200023140B000000C038E0000000203C23021F
:101630000227382008F8888888700000203F202082
:1016400020110E00C03008080808380007182020B4
:101650002010080008F808080810E000203F2020AB
:1016600020100F0008F88888E8081000203F20208C
:101670002320180008F88888E8081000203F200080
:1016800003000000C03008080838000007182020B8
:10169000221E020008F808000008F808203F210177
:1016A00001213F20000808F8080800000020203F22
:1016B0002020000000000808F8080800C080808092
:1016C0007F00000008F888C028180800203F20018B
:1016D0002638200008F8080000000000203F2020E5
:1016E0002020300008F8F800F8F80800203F003FFC
:1016F000003F200008F830C00008F808203F200014
:1017000007183F00E01008080810E0000F10202024
:1017100020100F0008F808080808F000203F2101F9
:1017200001010000E01008080810E0000F18242450
:1017300038504F0008F8888888887000203F2000C3
:10174000030C302000708808080838000038202179
:1017500021221C00180808F8080818000000203F83
:101760002000000008F808000008F808001F2020EA
:1017700020201F000878880000C8380800000738BB
:101780000E010000F80800F80008F800033C07000C
:10179000073C0300081868808068180820302C0374
:1017A000032C30200838C800C83808000000203F4B
:1017B0002000000010080808C8380800203826213A
:1017C00020201800000000FE020202000000007F3E
:1017D00040404000000C30C000000000000000014C
:1017E0000638C00000020202FE0000000040404037
:1017F0007F0000000000040202020400000000005C
:1018000000000000000000000000000080808080D8
:1018100080808080000202040000000000000000C0
:101820000000000000008080808000000019242259
:1018300022223F2008F8008080000000003F112095
:1018400020110E000000008080800000000E11209A
:1018500020201100000000808088F800000E112078
:1018600020103F200000808080800000001F222286
:1018700022221300008080F0888888180020203FF2
:10188000202000000000808080808000006B949405
:101890009493600008F8008080800000203F2100C1
:1018A00000203F2000809898000000000020203F8A
:1018B00020200000000000809898000000C0808078
:1018C000807F000008F8000080808000203F240214
:1018D0002D302000000808F8000000000020203F04
:1018E000202000008080808080808000203F2000B9
:1018F0003F20003F8080008080800000203F21004A
:1019000000203F200000808080800000001F2020F9
:1019100020201F00808000808000000080FFA12028
:1019200020110E000000008080808000000E112039
:1019300020A0FF80808080008080800020203F21C8
:10194000200001000000808080808000003324247B
:1019500024241900008080E0808000000000001F27
:10196000202000008080000000808000001F2020D8
:1019700020103F20808080000080808000010E3099
:101980000806010080800080008080800F300C03FA
:101990000C300F0000808000808080000020312EFD
:1019A0000E312000808080000080808080818E70D9
:1019B0001806010000808080808080000021302C8B
:1019C0002221300000000000807C020200000000A4
:1019D000003F404000000000FF0000000000000049
:1019E000FF0000000002027C800000000040403F39
:1019F00000000000000601010202040400000000D3
:101A000000000000241A0008000000201800000058
:101A1000280100083C1A00081800002028070000D0
:101A2000440100080204060800000000010203044B
:0C1A300001020304060708090000000082
:04000005080000ED02
:00000001FF
